:0B000E003332536572766F210D0A003B
:1002E100016000202040000000000000000000002C
:1002F10000000000000000000000000000000000FD
:10030100000000000000202020000000000000008C
:10031100000A0F141400000000000000000000009B
:09032100000000000000000000D3
:10038E007594FF7592FF7596FF75B2FC1203F51208
:10039E0003C91203DFD2AF7BFF7A00790E12036915
:0203AE0080FECF
:080003008F993099FDC299228A
:100369008B088A09890AAB08AA09A90A1203B0608D
:1003790013050AE50A7002050914F91203B0FF1200
:05038900000380E222E8
:1003F50053877F759850438E04759CFD438E01434A
:050405008E10D2AC22B4
:1003C900538E7F5389F0438901E4F58A758CB8C24D
:0603D9008DD28CD2A92296
:1003DF00538EBF53890F438920758BA4758DA4C28B
:0603EF008FD28ED2AB227A
:03000B000202806E
:10028000758A00758CB8754000754100754200751F
:100290004300754400754500754600754700754874
:1002A00000754900754A00754B00754C00754D008E
:1002B000754E00754F0075500075510075520075F0
:1002C0005300755400755500755600755700755AE2
:1002D00000755B00755C00755D00755E00755F0004
:0102E00032EB
:03001B00020026BA
:10002600C0E0C0D075D010AF400540EFC39520406A
:10003600028001D39280AF410541EFC39521400272
:100046008001D39281AF420542EFC39522400280E0
:1000560001D39282AF430543EFC39523400280014B
:10006600D39283AF440544EFC3952440028001D365
:100076009284AF450545EFC3952540028001D39292
:1000860085AF460546EFC3952640028001D392868A
:10009600AF470547EFC3952740028001D39287AF4C
:1000A600480548EFC3952840028001D39290AF4996
:1000B6000549EFC3952940028001D39291AF4A05C5
:1000C6004AEFC3952A40028001D39292AF4B054B6B
:1000D600EFC3952B40028001D39293AF4C054CEFB2
:1000E600C3952C40028001D39294AF4D054DEFC3CA
:1000F600952D40028001D39295AF4E054EEFC395E4
:100106002E40028001D39296AF4F054FEFC3952F35
:1001160040028001D39297AF500550EFC39530400F
:10012600028001D392A0AF510551EFC39531400231
:100136008001D392A1AF520552EFC395324002809F
:1001460001D392A2AF530553EFC39533400280010A
:10015600D392A3AF540554EFC3953440028001D324
:1001660092A4AF550555EFC3953540028001D39251
:10017600A5AF560556EFC3953640028001D392A629
:10018600AF570557EFC3953740028001D392A7AF0B
:100196005A055AEFC3953A40028001D392B2AF5B3B
:1001A600055BEFC3953B40028001D392B3AF5C057C
:1001B6005CEFC3953C40028001D392B4AF5D055D10
:1001C600EFC3953D40028001D392B5AF5E055EEF69
:1001D600C3953E40028001D392B6AF5F055FEFC381
:0E01E600953F40028001D392B7D0D0D0E032D6
:0300230002032BAA
:10032B00C0E0C0D075D01830982FC298E59930E74F
:10033B0008E599541FF5608020E59930E612AF99D6
:10034B00EF24BF6007047011C2AF800DD2AF8009DC
:0E035B00E560541F2420F8A699D0D0D0E032DF
:030000000201F406
:0C01F400787FE4F6D8FD75816002023BC4
:1003B000BB010689828A83E0225002E722BBFE024B
:0903C000E32289828A83E493227E
:1002000002038EE493A3F8E493A34003F68001F283
:1002100008DFF48029E493A3F85407240CC8C333FF
:10022000C4540F4420C8834004F456800146F6DFCE
:10023000E4800B01020408102040809002E1E47E7B
:10024000019360BCA3FF543F30E509541FFEE493C3
:10025000A360010ECF54C025E060A840B8E493A38A
:10026000FAE493A3F8E493A3C8C582C8CAC583CAB5
:10027000F0A3C8C582C8CAC583CADFE9DEE780BE6D
:01032A0000D2
:00000001FF
