:030000000200F00B
:0C00F000787FE4F6D8FD75811E0200C583
:10000D0053544331314630322054446973706C611E
:05001D00792E0D0A0020
:1000C500E4F51BF51AF519F51811DC118D7BFF7A8E
:0700D50000790D114A80FEC5
:1000DC00438E805389F0438902758AF4758CF4C27F
:0400EC008DD28C2203
:02000B000125CD
:10002500C0E0C0D075D008AF1BAE1AAD19AC18EF43
:100035002401F51BE43EF51AE43DF519E43CF518F9
:05004500D0D0D0E03234
:10008D0053877F759850438E40538EFE53890F438F
:0F009D008920758BD9758DD9D28ED2ACD2AF2276
:02002300016C6E
:10006C00C0E0C0F0C083C082C0D075D010309806FC
:10007C00C298AF991103D0D0D082D083D0F0D0E009
:01008C003241
:080003008F993099FDC299228A
:10004A008B1C8A1D891EAB1CAA1DA91E11AC60112E
:10005A00051EE51E7002051D14F911ACFF1103807F
:02006A00E5228D
:1000AC00BB010689828A83E0225002E722BBFE0252
:0900BC00E32289828A83E4932285
:00000001FF
