:03000000020146B4
:0C014600787FE4F6D8FD75812602018D5B
:10000D0053544331314630322054446973706C611E
:05001D00792E0D0A0020
:10037700719F713B715A71B17BFF7A00790D51D82A
:0803870031D271B8112280F897
:0F038F007C007D033134EF1F70011E144E70F798
:01039E00223C
:0203BD0000003E
:0A039F00514D7FCC51817F44418114
:10024D007F01EF602CEF601BD2B70000C2B77F2695
:10025D007E02718FD2B77F467E00718FA2B7E433D5
:10026D00FF80E27FF47E01718FA2B7B3E433FF808C
:03027D00D1D2B724
:01028000225B
:020281008F1CD0
:10028300751D08D2B70000C2B70000000000E51CCE
:100293001392B77F467E00718FE51CC313F51C15BF
:1002A3001DE51DD3940050DBD2B77F0A7E00618F1A
:10021700E4F51D751C08D2B70000E51DC313F51DD5
:10022700C2B700000000D2B70000000030B7034398
:100237001D807F467E00718F151CE51CD3940050EE
:05024700D5D2B7AF1D88
:01024C00228F
:1001D200781A7C007D007BFF7A0379BD7E007F0266
:1001E20011F5514D7FCC51817FBE518151178F1A2C
:1001F20051178F1B7518008F19E519751900F5181D
:10020200751800851A19514D7FCC51817F44518157
:04021200AE18AF195A
:0102160022C5
:0503B8008E188F1922D0
:0200230041FAA0
:1002FA00C0E0C0F0C083C082C0D075D0103098066C
:10030A00C298AF991103D0D0D082D083D0F0D0E078
:01031A0032B0
:10033B0053877F759850438E40538EFE53890F43DE
:0F034B008920758BD9758DD9D28ED2ACD2AF22C5
:080003008F993099FDC299228A
:1002D8008B188A19891AAB18AA19A91A311B601127
:1002E800051AE51A7002051914F9311BFF1103806C
:0202F800E522FD
:02000B0041B3FF
:1002B300C0E0C0D075D008AF26AE25AD24AC23EF87
:1002C3002401F526E43EF525E43DF524E43CF5233D
:0502D300D0D0D0E032A4
:10035A00E4F526F525F524F523438E805389F043E9
:0D036A008902758AF4758CF4C28DD28C2244
:10031B000001010203030404050606070808090986
:10032B00C0F9A4B0999282F88090FFBF7FBFDFEF36
:0703A900051E00000000002A
:0703B1007590FF75B0FF22FB
:0100220022BB
:10015200020377E493A3F8E493A34003F68001F249
:1001620008DFF48029E493A3F85407240CC8C333AE
:10017200C4540F4420C8834004F456800146F6DF7D
:10018200E4800B01020408102040809003A9E47E61
:10019200019360BCA3FF543F30E509541FFEE49372
:1001A200A360010ECF54C025E060A840B8E493A339
:1001B200FAE493A3F8E493A3C8C582C8CAC583CA64
:1001C200F0A3C8C582C8CAC583CADFE9DEE780BE1C
:0103B000004C
:10002500E709F608DFFA8046E709F208DFFA803EBD
:1000350088828C83E709F0A3DFFA8032E309F608AA
:10004500DFFA8078E309F208DFFA807088828C8312
:10005500E309F0A3DFFA806489828A83E0A3F608C6
:10006500DFFA805889828A83E0A3F208DFFA804CA0
:1000750080D280FA80C680D4806980F28033801077
:1000850080A680EA809A80A880DA80E280CA8033E0
:1000950089828A83ECFAE493A3C8C582C8CCC58358
:1000A500CCF0A3C8C582C8CCC583CCDFE9DEE78028
:1000B5000D89828A83E493A3F608DFF9ECFAA9F0A7
:1000C500EDFB2289828A83ECFAE0A3C8C582C8CCFD
:1000D500C583CCF0A3C8C582C8CCC583CCDFEADE16
:1000E500E880DB89828A83E493A3F208DFF980CC78
:1000F50088F0EF60010E4E60C388F0ED2402B40471
:100105000050B9F582EB2402B4040050AF23234517
:06011500822390007573C7
:10011B00BB010689828A83E0225002E722BBFE02E2
:09012B00E32289828A83E4932215
:10013400EF8DF0A4A8F0CF8CF0A428CE8DF0A42EDF
:02014400FE2299
:00000001FF
